:1000000008308A00572C00000A108A100A11820753
:10001000203420345234413449344E34203447346F
:1000200055344134473445342034203400340A10E8
:100030008A100A1182075234413449344E343B3419
:10004000253433342E34323466343B3400340A10D1
:100050008A100A118207543465346D3470343B348D
:10006000253433342E34313466343B3400340A10B2
:100070008A100A1182075634573443343B342534EE
:1000800033342E34333466343B3400343A30840015
:100090000008031958280630F800F701F70B4E281E
:1000A000F80B4D287B30F700F70B5428800B4B28BA
:1000B00000343E08A000A01D0610A0190614201D43
:1000C000861020198614A01C0611A0180615201CE5
:1000D00086112018861500000000000000000000B6
:1000E00006170000000000000000000006130034A6
:1000F0000230BA00462086130330BE005920053076
:10010000BA0046200330BE0059205330F700F70BE9
:1001100087280230BE0059205330F700F70B8E2895
:100120000230BE0059205330F700F70B95280830F5
:10013000BE0059205330F700F70B9C280130BE0059
:1001400059205330F700F70BA3280430BE00592084
:100150005330F700F70BAA28BE0159205330F7009F
:10016000F70BB0280C30BE0059201030F700F70B09
:10017000B72800005330F700F70BBC28BE01592008
:100180005330F700F70BC2280630BE005920533019
:10019000F700F70BC928BE0159205330F700F70BC1
:1001A000CF280130BE0059200230BA004620861701
:1001B0008A150A127A2C3C0EBD000F30BD053D0891
:1001C000BE0059205330F700F70BE4283C08BE006E
:1001D00059205330F700F70BEB28003486133A0808
:1001E0008038BB00BC00DB2086178A150A127E2CE3
:1001F0008316071683128711A11121088316870021
:100200000000000000000000000083128715A1110B
:100210002108831687000000000000000000000095
:1002200083120712211221088316870000000000A4
:1002300000000000000083128711A111210883161D
:1002400087000330F700F70B232983128715A111CC
:100250002108831687000000000000000000000055
:100260000716000000000000000000008312871144
:10027000A111210883168700831200348316071604
:1002800083128711A1112108831687000330F7001C
:10029000F70B48298312BA013A08083C031C662967
:1002A0008715A1112108831687000330F700F70B8B
:1002B000572983128711A111210883168700033063
:1002C000F700F70B61298312BA0A4C29F820143081
:1002D000BA0046208A150A128F2C80308318F30644
:1002E0008316A201A30183126F088316A10073086D
:1002F000A10683126E0803196A2A8316A000F7006C
:1003000072080319742AA00203190B2A031CC629B8
:100310007308A600A6177408A5007508A400A30119
:100320000310A60CA50CA40CA30CA00B8F29A11FD5
:100330009C2922148A2A221020102216713084004F
:100340009F2A2212A11BAE29201CB929A60CA50C9C
:10035000A40CA30CF70A0319852AB929A61BBC29EA
:100360000310A30DA40DA50DA60DF7030319852AEF
:10037000AE2922172C2A221383126F088316A1009C
:10038000A11FC429A6177E2AA6137E2A7208A000E0
:10039000F70083126E088316A00283126F0883167B
:1003A000A600A6177008A5007108A400A3010310F9
:1003B000A60CA50CA40CA30CA00BD629A11FE32905
:1003C000A2148A2AA2102010A216753084009F2A37
:1003D000A212A11BF529201C002AA60CA50CA40C16
:1003E000A30CF70A0319852A002AA61B032A031067
:1003F000A30DA40DA50DA60DF7030319852AF52954
:10040000A2172C2AA2137308A100A11F092AA6175C
:100410007E2AA6137E2A7308A600A6177408A500D4
:100420007508A400A11F182AA61322158A2A2211D2
:10043000A3012010713084009F2AA11B422A83123D
:100440006F088316A100201C2C2AA60CA50CA40C56
:10045000A30CF70A0319852AA31F3D2AA40A031D2A
:100460003D2AA50A031D3D2AA60A031D3D2AA60C06
:10047000A50CA40CF70A0319852A221BBB29A21B71
:10048000022A632A8030A606A61F4A2A8A2A7308EF
:10049000A100592A83126F088316A100A608031D24
:1004A000592AA508031D592AA408031D592AF70132
:1004B0007E2AA61B632A0310A30DA40DA50DA60D6D
:1004C000F70B592A852AA11F672AA6177E2AA61389
:1004D0007E2A83127208F70073088316A600740838
:1004E000A5007508A4007E2A83126E08F7006F0825
:1004F0008316A6007008A5007108A4002608F8005D
:100500002508F9002408FA00BD2AF701F801F901CD
:10051000FA01BD2AA301A409A509A609A309A30AF2
:10052000031D982AA40A031D982AA50A0319A60ADE
:1005300022189B29A218E2292219172A472A000803
:10054000A407031CA92AA50A031DA92AA60A0319A0
:10055000201484030008A507031CB12AA60A031966
:10056000201484030008801F803AA6070318201473
:10057000221AA129A21AE8291D2A00008312003498
:10058000831685148312B0018518B00AB0080319C8
:10059000E42A83102F08F1002E08F0002D08EF0048
:1005A0002C08EE00CD30F500CC30F4004C30F300D8
:1005B0007C30F2006D217A08AF007908AE0078082F
:1005C000AD007708AC00B10A8A150A12922C3F08D8
:1005D000C8004008C900CA01BC1FF02A4817C90357
:1005E000BC173B080319932B7F303B02031C4F2B96
:1005F000BB00CB010430CC000310BE0DBD0DBC0D03
:10060000CA0DCC0BFC2A04303B0203180F2B03301D
:100610003B02031D892B0A304A02031C892B03303D
:10062000BB02CB0A5D240310BE0DBD0DBC0DCA0D6F
:1006300046240230CC000310CA0CBC0CBD0CBE0C0E
:10064000CC0B1B2B5D240430CC000310BF0CC00C62
:10065000C10CC20CCC0B252B46245D244108C200E2
:100660004008C1003F08C000BF0146245D24400887
:10067000C2003F08C100BF01C0014624CA19032BB4
:10068000BB08031D482BBE0ABD0ABC0ACA0A892B37
:100690000310BE0DBD0DBC0DCA0DBB03032BBB0962
:1006A000BB0A7F30BB07CB010430CC000310BE0D6A
:1006B000BD0DBC0DCA0DCC0B562B0430BB0705304D
:1006C0003B02031C952B5D240310BE0DBD0DBC0D1C
:1006D000CA0D0310BE0DBD0DBC0DCA0D462403107E
:1006E000BE0DBD0DBC0DCA0DCB0A0330CC000310EE
:1006F000CA0CBC0CBD0CBE0CCC0B772B0330BB0260
:100700004A1E5F2B0310CA0CBC0CBD0CBE0CBB03F5
:100710005F2BBB09BB0A0330BB074B0AC902031C92
:10072000C9010130962B0230962B0030C400C81B43
:10073000A42BC91BA42BC9080319A42B20300C1E01
:100740009F2B9900C90B9E2B481FAA2B2D300C1EE6
:10075000A72B9900C81FB72BC91BB72BC9080319B2
:10076000B72B30300C1EB22B9900C90BAE2BC8131F
:100770004813441CC22B4B08C4004B08C600480A4F
:10078000C607EC2BC41CC62B480ACB00C8080319AB
:10079000442C2E300C1ECA2B99004B08C700C703EF
:1007A00048084702031CD62B4808C700C70803198E
:1007B000DF2B30300C1EDA2B9900C70BD92B4B08DE
:1007C000CC00480ACC020318662CBB03480AC600BA
:1007D0004B08C6024608C4004A08C3003B08031978
:1007E000F62BC5000310C30CC50BF22B46080319EA
:1007F000442C303043070C1EFB2B99004408031D8A
:10080000082CC8080319442C2E300C1E052C990006
:10081000C403C6030319442C3B080319142CC50058
:100820000310C30DC50B102C4308CA024A08BF00B1
:100830003C08C0003D08C1003E08C2000310BE0DC8
:10084000BD0DBC0DCA0D0310BE0DBD0DBC0DCA0DF6
:100850004208BE07031C312CBD0F312CBC0F312CBC
:10086000CA0A4108BD07031C382CBC0F382CCA0A21
:100870004008BC070318CA0A3F08CA070310BE0D88
:10088000BD0DBC0DCA0DEC2B0000662C4208BE0746
:10089000031C4F2CBD0F4F2CBC0F4F2CCA0A410814
:1008A000BD07031C562CBC0F562CCA0A4008BC07B7
:1008B0000318CA0A3F08CA0700344A08BF003C08A8
:1008C000C0003D08C1003E08C200003400000034F2
:1008D0008E30F7006308F8006208F900FA01F808A2
:1008E000031D7C2C7908F800F9010830F702F8089C
:1008F000031D7C2CF701842C0310F81B832CF90DAD
:10090000F80DF7037C2CF813000000346A08031973
:10091000F62CF2006E080319F62CF2070318972C38
:100920007F30F202031CF62C0319F62C9B2C81302D
:10093000F2070318F62C7208F700F801F901FA0122
:100940006B08F600F6176C08F5006D08F400183017
:10095000F200F301741CC42C7108FA07031CB62CB6
:10096000F90A031DB62CF80A0319F3177008F907E2
:10097000031CBD2CF80A0319F3176F08EC00EC17E1
:100980006C08F8070318F317F30DF80CF90CFA0CC0
:10099000F60CF50CF40C0310F20BA92C0130F70740
:1009A0000318F62CF81BDB2CF60DFA0DF90DF80DDB
:1009B000F7030319F62CF61FEC2CFA0A031DEC2C96
:1009C000F90A031DEC2CF80A031DEC2CF80CF90CA9
:1009D000FA0CF70A0319F62C6B08F3006F08F306FC
:1009E000F31FF42CF817FA2CF813FA2CF701F8017E
:1009F000F901FA01000000343B08C2003F08C206BA
:100A0000C21F072D03110310BB1B03143A2D3B0813
:100A1000C2003E08C3003A08C3020319152DC21FC5
:100A20003A2D0308013A83003A2D3F08C3003B08E2
:100A3000C3020319212DC21F3A2D0308013A830076
:100A40003A2D4008C3003C08C30203192D2DC21FD4
:100A50003A2D0308013A83003A2D4108C3003D08AE
:100A6000C3020319392DC21F3A2D0308013A83002E
:100A70003A2D031000345A080319002EE6005E08D0
:100A80000319002EE602031C4A2D7F30E6070318E7
:100A9000002E502D8130E602031C002E0319002E7B
:100AA0006608F700F801F901FA01E5015B08E400C6
:100AB000E4175C08E3005D08E2001930E600610815
:100AC000E2020318732D0130E3020318732DE402D0
:100AD0000318732DE5020318732DE50AE40AE30AEF
:100AE0006108E207A52D6008E30203188E2D01308E
:100AF000E40203188E2DE50203188E2DE50AE40AA0
:100B00006008E3076108E207031CA52DE30A031D43
:100B1000A52DE40A031DA52DE50AA52D5F08803843
:100B2000E4020318A42D0130E5020318A42DE50A00
:100B30005F088038E4076008E307031C822DE40A9D
:100B4000031D822DE50A822D7A14E60BA82DB32D04
:100B50000310E20DE30DE40DE50D0310FA0DF90DA0
:100B6000F80DE70D5F2D671CBB2D0310F80CF90C79
:100B7000FA0CE70CBE2DF7030319002EE71BE72D37
:100B80000310E20DE30DE40DE50D6108E202031828
:100B9000D32D0130E3020318D32DE4020318D32D23
:100BA000E502031CF62D6008E3020318DE2D013078
:100BB000E4020318DE2DE502031CF62D5F088038E1
:100BC000E4020318E72D0130E502031CF62DFA0AB2
:100BD000031DF62DF90A031DF62DF80A031DF62D47
:100BE000F70A0319002EF80CF90CFA0C5B08E60062
:100BF0005F08E606E61FFE2DF817042EF813042EF4
:100C0000F701F801F901FA0100008A110A12452ED4
:100C100083145508F1005408F0005308EF005208FF
:100C2000EE005108F5005008F4004F08F3004E089C
:100C3000F2006D217708D6007808D7007908D8002F
:100C40007A08D90083144D08F1004C08F0004B08D5
:100C5000EF004A08EE004908F5004808F40047088C
:100C6000F3004608F2006D215908DD005808DC0049
:100C70005708DB005608DA007A08E1007908E0003E
:100C80007808DF007708DE003B2D7708DA00780867
:100C9000DB007908DC007A08DD0083144508F100E8
:100CA0004408F0004308EF004208EE004908F50050
:100CB0004808F4004708F3004608F2006D215D087B
:100CC000ED005C08EC005B08EB005A08EA007A08CB
:100CD000F1007908F0007808EF007708EE0086242C
:100CE00083105108F1005008F0004F08EF004E0843
:100CF000EE007A08F5007908F4007808F300770828
:100D0000F2006D2100348030CF000630F700F70B81
:100D1000872E0000CE014E08073C031CB82E871119
:100D2000A11121088316870083124D084F05003A50
:100D300003199E2E83160716A32E83120712211263
:100D4000210883168700000000000000000000005A
:100D500083128715A1112108831687000000000067
:100D600000000000000003108312CF0CCE0A8B2E6F
:100D70008711A111210883168700000000000000E0
:100D800000000000831221162108831687008312B9
:100D9000071ACC2E5010CD2E50148715A111210802
:100DA000831687000000000000000000000083128E
:100DB0008711A11121088316870000308312501873
:100DC0000130F80000348316071683128711A11131
:100DD00021088316870000000000000000000000CA
:100DE0008312CE01CD014E08753C031C0D2F031D4F
:100DF000FD2E4D082F3C031C0D2F211621088316B4
:100E000087008312071E0D2F1030F700F70B062FF7
:100E10000000CD0A0319CE0AF32E0034CE01CF0113
:100E2000CD014D08073C031C372F0310CE0DCF0D0D
:100E30008715A1112108831687000000000000001B
:100E400000000000831221162108831687008312F8
:100E5000071A4E148711A11121088316870000007C
:100E600000000000000000008312CD0A112F0712BD
:100E700021122108831687000000000000000000F6
:100E8000000083128715A111210883168700033003
:100E9000F700F70B492F83128711A1112108831640
:100EA0008700000000000000000000000716831209
:100EB000CD014D08073C031C7F2F0310CE0DCF0D35
:100EC0008715A1112108831687000000000000008B
:100ED0000000000083122116210883168700831268
:100EE000071A4E148711A1112108831687000000EC
:100EF00000000000000000008312CD0A592F831665
:100F00000716000000000000000000008312871593
:100F1000A1112108831687000330F700F70B8E2FED
:100F200083128711A11121088316870083124E08AE
:080F3000F8004F08F90000343D
:101000000030F8001F08C73978049F002130F7002E
:10101000F70B08281F151F190B2883161E088312AB
:10102000A2001E08A3002308E3002208E2008A11A0
:1010300068248A155230ED004930EC001D30EB0079
:101040007730EA007A08F1007908F0007808EF00BC
:101050007708EE008A1186248A157A08A700790895
:10106000A6007808A5007708A400BD01BC01BB015B
:10107000BA012708C1002608C0002508BF002408BF
:10108000BE008A11FC248A15031CB3282708BD0062
:101090002608BC002508BB002408BA00C101C00115
:1010A000BF017D30BE008A11FC248A15031CB328C1
:1010B000BA01BB01BC01BD01BE01BF01C001C1013C
:1010C0002708C5002608C4002508C3002408C2005C
:1010D0003D08C9003C08C8003B08C7003A08C600E4
:1010E000CD01CC01CB017D30CA004108D1004008C0
:1010F000D0003F08CF003E08CE00D501D4012030FB
:10110000D3008030D2008A1108268A157A08AB00F5
:101110007908AA007808A9007708A800BA013A0857
:101120008A1137208A15BA0AF70077080C1E96280C
:10113000990004303A02031D8F282B08BE002A08AC
:10114000BD002908BC002808BB00C201C101013054
:10115000C0000330BF008A11E7228A153B300C1E05
:10116000AF289900542CBD01BC01BB017D30BA00F1
:101170002708C1002608C0002508BF002408BE00BB
:101180008A11FC248A15031C25292708BD0026087E
:10119000BC002508BB002408BA00C101C001BF0182
:1011A0007E30BE008A11FC248A15031C25292708DD
:1011B000C5002608C4002508C3002408C200C901D0
:1011C000C801C7017D30C600CD01CC01CB017E3006
:1011D000CA00D101D0012030CF008030CE00D5012F
:1011E000D4017030D3008130D2008A1108268A15CC
:1011F0007A08AB007908AA007808A9007708A80047
:10120000BA013A088A1137208A15BA0AF700770816
:101210000C1E0829990004303A02031D01292B08ED
:10122000BE002A08BD002908BC002808BB00C20176
:10123000C1010130C0000330BF008A11E7228A15C6
:101240003B300C1E21299900542CBD01BC01BB016F
:101250007E30BA002708C1002608C0002508BF005C
:101260002408BE008A11FC248A15031C992927082A
:10127000BD002608BC002508BB002408BA00C10137
:10128000C0014030BF007E30BE008A11FC248A15A8
:10129000031C99292708C5002608C4002508C30097
:1012A0002408C200C901C801C7017E30C600CD01B3
:1012B000CC014030CB007E30CA00D101D00170306B
:1012C000CF008130CE00D501D4012030D300823050
:1012D000D2008A1108268A157A08AB007908AA007C
:1012E0007808A9007708A800BA013A088A113720BF
:1012F0008A15BA0AF70077080C1E7C299900043079
:101300003A02031D75292B08BE002A08BD002908D2
:10131000BC002808BB00C201C1010130C00003307D
:10132000BF008A11E7228A153B300C1E95299900CF
:10133000542CBD01BC014030BB007E30BA002708F0
:10134000C1002608C0002508BF002408BE008A117D
:10135000FC248A15031C0D2A2708BD002608BC00A2
:101360002508BB002408BA00C101C001BF017F30BD
:10137000BE008A11FC248A15031C0D2A2708C5000B
:101380002608C4002508C3002408C200C901C801FA
:101390004030C7007E30C600CD01CC01CB017F308C
:1013A000CA00D101D0012030CF008230CE00D5015B
:1013B000D4014830D3008230D2008A1108268A1521
:1013C0007A08AB007908AA007808A9007708A80075
:1013D000BA013A088A1137208A15BA0AF700770845
:1013E0000C1EF029990004303A02031DE9292B084C
:1013F000BE002A08BD002908BC002808BB00C201A5
:10140000C1010130C0000330BF008A11E7228A15F4
:101410003B300C1E092A9900542CBD01BC01BB01B4
:101420007F30BA002708C1002608C0002508BF0089
:101430002408BE008A11FC248A15031C812A27086F
:10144000BD002608BC002508BB002408BA00C10165
:10145000C0012030BF007F30BE008A11FC248A15F5
:10146000031C812A2708C5002608C4002508C300DC
:101470002408C200C901C801C7017F30C600CD01E0
:10148000CC012030CB007F30CA00D101D0014830E0
:10149000CF008230CE00D501D4017030D30082302D
:1014A000D2008A1108268A157A08AB007908AA00AA
:1014B0007808A9007708A800BA013A088A113720ED
:1014C0008A15BA0AF70077080C1E642A99000430BE
:1014D0003A02031D5D2A2B08BE002A08BD00290818
:1014E000BC002808BB00C201C1010130C0000330AC
:1014F000BF008A11E7228A153B300C1E7D2A990015
:10150000542CBD01BC012030BB007F30BA0027083D
:10151000C1002608C0002508BF002408BE008A11AB
:10152000FC248A15031CF72A2708BD002608BC00E6
:101530002508BB002408BA00C101C0014030BF002B
:101540007F30BE008A11FC248A15031CF72A270865
:10155000C5002608C4002508C3002408C200C9012C
:10156000C8012030C7007F30C600CD01CC0140301B
:10157000CB007F30CA00D101D0017030CF00823063
:10158000CE00D501D4014830D3008330D2008A1177
:1015900008268A157A08AB007908AA007808A900FD
:1015A0007708A800BA013A088A1137208A15BA0AC2
:1015B000F70077080C1EDA2A990004303A02031D5E
:1015C000D32A2B08BE002A08BD002908BC00280821
:1015D000BB00C201C1010130C0000330BF008A114D
:1015E000E7228A153B300C1EF32A9900542CBD01CA
:1015F000BC014030BB007F30BA002708C10026087C
:10160000C0002508BF002408BE008A11FC248A15EA
:10161000031C6D2B2708BD002608BC002508BB0055
:101620002408BA00C101C0016030BF007F30BE0095
:101630008A11FC248A15031C6D2B2708C500260877
:10164000C4002508C3002408C200C901C8014030F5
:10165000C7007F30C600CD01CC016030CB007F30A9
:10166000CA00D101D0014830CF008330CE00D5016F
:10167000D4010C30D3008430D2008A1108268A1598
:101680007A08AB007908AA007808A9007708A800B2
:10169000BA013A088A1137208A15BA0AF700770882
:1016A0000C1E502B990004303A02031D492B2B08C5
:1016B000BE002A08BD002908BC002808BB00C201E2
:1016C000C1010130C0000330BF008A11E7228A1532
:1016D0003B300C1E692B9900542CBD01BC016030BD
:1016E000BB007F30BA002708C1002608C0002508CB
:1016F000BF002408BE008A11FC248A15031CE12BBC
:101700002708BD002608BC002508BB002408BA0035
:10171000C101C001BF018030BE008A11FC248A15BE
:10172000031CE12B2708C5002608C4002508C300B8
:101730002408C200C901C8016030C7007F30C6005C
:10174000CD01CC01CB018030CA00D101D0010C30D9
:10175000CF008430CE00D501D4013430D3008430A2
:10176000D2008A1108268A157A08AB007908AA00E7
:101770007808A9007708A800BA013A088A1137202A
:101780008A15BA0AF70077080C1EC42B990004309A
:101790003A02031DBD2B2B08BE002A08BD002908F4
:1017A000BC002808BB00C201C1010130C0000330E9
:1017B000BF008A11E7228A153B300C1EDD2B9900F1
:1017C000542CBD01BC01BB018030BA002708C10008
:1017D0002608C0002508BF002408BE008A11FC248A
:1017E0008A15031C542C2708BD002608BC002508B8
:1017F000BB002408BA00C101C0012030BF00803006
:10180000BE008A11FC248A15031C542C2708C5002D
:101810002608C4002508C3002408C200C901C80165
:10182000C7018030C600CD01CC012030CB00803014
:10183000CA00D101D0013430CF008430CE00D501B0
:10184000D4014830D3008430D2008A1108268A158A
:101850007A08AB007908AA007808A9007708A800E0
:10186000BA013A088A1137208A15BA0AF7007708B0
:101870000C1E382C990004303A02031D312C2B0821
:10188000BE002A08BD002908BC002808BB00C20110
:10189000C1010130C0000330BF008A11E7228A1560
:1018A0003B300C1E512C99008A150A12C12C840160
:1018B0001F30830583161F149F141F159F110730B7
:1018C00083129F0081308316990026309800903053
:1018D00083129800A001FF30A100AC01AD01AE0160
:1018E000AF018316051485100E309F0086018A1102
:1018F000831278288A15BA018A11EE288A15BA014E
:101900003A088A1104208A15003803198D2CBA0A66
:10191000BC008A11DB208A15802C8A113E298A1589
:101920008A11C02A8A1583161F1383121F179F1747
:1019300083169F1783121F14BA013A088A111720C1
:101940008A15BA0AF70077080C1EA42C99000530F6
:101950003A02031D9D2C2F08BE002E08BD002D0845
:10196000BC002C08BB00C201C1010130C000023024
:10197000BF008A11E7228A153B300C1EBD2C99004E
:101980000028BB01BA01B901B801B701B6018A113B
:10199000F8208A150330CD008A1183268A1578181D
:1019A000D32C4A10D42C4A1400304A180130013C80
:1019B0000319E82C8A11E3268A158A110E278A1545
:1019C0007908CC007808CB004B08F8004C08F900E7
:1019D0007908BB007808BA008A11F8208A1505300A
:1019E000CD008A1183268A157818F82C4A10F92C14
:1019F0004A1400304A180130013C03190D2D8A1198
:101A0000E3268A158A110E278A157908CC007808F2
:101A1000CB004B08F8004C08F9007908BD007808A5
:101A2000BC003B08CB003A08CA003D08CD003C088A
:101A3000CC004B08E3004A08E2008A1168248A15AA
:101A40007708D6007808D7007908D8007A08D90036
:101A5000ED007908EC007808EB007708EA000A301E
:101A6000F100D730F0002330EF007830EE008A111B
:101A700086248A157708DA007808DB007908DC000C
:101A80007A08DD0083147A08F1007908F0007808FC
:101A9000EF007708EE00F501F4012030F300843008
:101AA000F2008A116D218A157A08B5007908B40010
:101AB0007808B3007708B2004D08E3004C08E20054
:101AC0008A1168248A157A08D5007908D400780824
:101AD000D3007708D2005508ED005408EC005308F5
:101AE000EB005208EA005430F100E330F0002530FA
:101AF000EF007A30EE008A1186248A157708D60026
:101B00007808D7007908D8007A08D9005508ED0080
:101B10005408EC005308EB005208EA005508F100A5
:101B20005408F0005308EF005208EE008A11862492
:101B30008A157708DA007808DB007908DC007A0873
:101B4000DD00ED007908EC007808EB007708EA008A
:101B5000A230F100E730F0003B30EF006C30EE00D7
:101B60008A1186248A1583145908F1005808F00058
:101B70005708EF005608EE007A08F5007908F400DF
:101B80007808F3007708F2008A116D218A1577082A
:101B9000DE007808DF007908E0007A08E1008314AD
:101BA0007A08F1007908F0007808EF007708EE0075
:101BB000F501F401F3018130F2008A116D218A15DB
:101BC0007A08C1007908C0007808BF007708BE0015
:101BD00083143508F1003408F0003308EF003208B0
:101BE000EE00F501F4014830F3008330F2008A1171
:101BF0006D218A157708D6007808D7007908D800B3
:101C00007A08D900AC30ED00C530EC002730EB008D
:101C10007130EA005508F1005408F0005308EF0055
:101C20005208EE008A1186248A1583100A30F100CA
:101C3000D730F0002330EF007830EE007A08F5005E
:101C40007908F4007808F3007708F2008A116D2112
:101C50008A155908ED005808EC005708EB005608A3
:101C6000EA007A08F1007908F0007808EF007708B8
:101C7000EE008A1186248A157708DA007808DB00DE
:101C80007908DC007A08DD0083107A08F100790811
:101C9000F0007808EF007708EE004108F5004008F2
:101CA000F4003F08F3003E08F2008A116D218A1506
:101CB0007A08B9007908B8007808B7007708B60044
:101CC000BA013A088A1127208A15BA0AF70077085C
:101CD0000C1E682E990005303A02031D612E35084E
:101CE000BE003408BD003308BC003208BB00C2018E
:101CF000C1010130C000BF008A11E7228A153B30C4
:101D00000C1E802E990052300C1E842E99004830F3
:101D10000C1E882E99003B300C1E8C2E9900390821
:101D2000BE003808BD003708BC003608BB00C20141
:101D3000C1010130C000BF008A11E7228A150A30B4
:101D40000C1EA02E99003230BA008A1146208A1546
:041D5000902C630070
:02400E00713F00
:00000001FF
;PIC16F877A
